:1000000000800020BD010000913E0000933E0000F2
:10001000953E0000973E0000993E00000000000061
:10002000000000000000000000000000D11C0000E3
:100030009D3E0000000000006F1D0000C71D000075
:10004000A33E0000A33E0000A33E0000A33E00002C
:10005000A33E0000A33E0000A33E0000A33E00001C
:10006000A33E0000A33E0000A33E0000A33E00000C
:10007000A33E0000A33E0000A33E0000A33E0000FC
:10008000A33E0000A33E0000A33E0000A33E0000EC
:10009000A33E0000A33E0000A33E0000A33E0000DC
:1000A000A33E0000A33E0000A33E0000A33E0000CC
:1000B000A33E0000A33E0000A33E0000A33E0000BC
:1000C000A33E0000A33E0000A33E0000A33E0000AC
:1000D000A33E0000A33E0000A33E0000A33E00009C
:1000E000A33E0000A33E0000A33E0000A33E00008C
:1000F000A33E0000A33E0000A33E0000A33E00007C
:10010000A33E0000A33E0000A33E0000A33E00006B
:10011000A33E0000A33E0000A33E0000A33E00005B
:10012000A33E0000A33E0000A33E0000A33E00004B
:10013000A33E0000A33E0000A33E0000A33E00003B
:10014000A33E0000A33E0000A33E0000A33E00002B
:10015000A33E0000A33E0000A33E0000A33E00001B
:10016000A33E0000A33E0000A33E0000A33E00000B
:10017000A33E0000A33E0000A33E0000A33E0000FB
:10018000A33E0000A33E0000A33E0000A33E0000EB
:10019000A33E0000A33E0000A33E0000A33E0000DB
:1001A000A33E0000A33E0000A33E0000A33E0000CB
:1001B000A33E0000A33E0000A33E00000648804787
:1001C0000649074A074B9A42BEBF51F8040B42F852
:1001D000040BF8E704480047ED0100004CCB000099
:1001E000C081FF1F788BFF1FC5040000234B2449EB
:1001F0004CF22052DA814DF62812DA814FF4E9727E
:100200001A80A3F5304341F24402995041F248026A
:100210000221995003F5F0330A221A70A3F5805396
:100220000021242219735A709A221A70DA7802F087
:100230001F02DA7007221A7159719A799007FCD55A
:100240009A7902F00C02082AFAD103221A7140228C
:100250005A710C4A134691798906FCD59A7952064F
:10026000FCD512221A70074A1146937903F00C0349
:100270000C2BFAD18B795B06FCD57047002005402A
:080280000000030100400640EC
:10040000FFFFFFFFFFFFFFFFFFFFFFFFFEFFFFFFFD
:10042000044B05481B1A062B02D9044B03B118478D
:10043000704700BF7B8BFF1F788BFF1F0000000001
:1004400005490648091A891001EBD171491002D0FB
:10045000034B03B118477047788BFF1F788BFF1F42
:100460000000000010B5064C237843B9FFF7D8FF11
:10047000044B13B10448AFF300800123237010BD77
:10048000008CFF1F00000000D0CA000008B5084B18
:100490001BB108480849AFF300800848036813B946
:1004A000BDE80840CCE7064B002BF9D09847F7E7AA
:1004B00000000000D0CA0000048CFF1F788BFF1FD3
:1004C00000000000134B002B08BF114B9D46A3F505
:1004D000803A00218B460F461148124A121A05F045
:1004E00089F80D4B002B00D098470C4B002B00D007
:1004F00098470020002104000D000B4803F0B1F9DB
:1005000004F056FE2000290003F0FAFA03F0A6F9E1
:10051000000008000080002000000000F13A000008
:10052000008CFF1F849DFF1F514A00000020704770
:10053000002070470020704700207047002070475F
:10054000002070470020704700207047002070474F
:10055000002070470020704700207047002070473F
:10056000002070470020704700207047002070472F
:10057000002070470020704700207047002070471F
:10058000002070470020704700207047002070470F
:1005900000207047002070470020704770470020FF
:1005A0007047704700207047002070470020704758
:1005B00070470020704700207047002070470222DB
:1005C00080F814210368002280F8152180F8162194
:1005D000D3F89430184770477047000000487047C0
:1005E000F681FF1F00487047CC81FF1F004870470D
:1005F0001082FF1F00487047F081FF1F00487047BE
:10060000C481FF1F00487047FA81FF1F38B50F4CA7
:100610002368DB07054616D4204603F04DF990B158
:100620000B4BB5F8F4201A72120A5A72B5F8F6207C
:100630009A72120ADA72B5F8F8201A732046120A72
:100640005A7303F053F9024838BD00BF208CFF1FD6
:10065000DE81FF1FB0F800311A12022A70B504467D
:1006600027D0032A3CD0012A40F084800368D3F8C5
:10067000A830984700287DD023682046D3F8A830BA
:1006800098470678122E75D123682046D3F8A830F3
:1006900098474578012D6DD12368C4F80C61D3F8D3
:1006A000A8302046984784F81051C4F8080128461D
:1006B00070BD0368D3F8AC30984700285AD023683F
:1006C0002046D3F8AC3098470378092B52D12368E1
:1006D0002046D3F8AC3098474378022B4AD14BE000
:1006E000DBB2052B46D8DFE803F0030E19242F3ABE
:1006F0000368D3F8B03098470378C4F80C31236806
:10070000D3F8B0304BE00368D3F8B430984703789F
:10071000C4F80C312368D3F8B43040E00368D3F850
:10072000B83098470378C4F80C312368D3F8B83050
:1007300035E00368D3F8BC3098470378C4F80C312F
:100740002368D3F8BC302AE00368D3F8C030984758
:100750000378C4F80C312368D3F8C0301FE0036875
:10076000D3F8C43098470378C4F80C312368D3F821
:10077000C43014E0002070BD23682046D3F8AC30AC
:10078000984723688578D3F8AC3020469847C378DB
:1007900045EA03252368C4F80C51D3F8AC30204651
:1007A0009847C4F80801012084F8100170BD0B7847
:1007B000DB0913700B78C3F3411353700B7803F00C
:1007C0001F0393704B78D370C8788B7843EA00236B
:1007D000938048790B7943EA0023D380C8798B79D9
:1007E00043EA00231381704770B5D0F80C510446DA
:1007F000EDB990F811312BB129462A4600F050FD91
:1008000084F8115194F812314BB123680021D3F8C8
:100810009C3020460A469847002384F8123120462F
:1008200000F038FD204600F027FD012070BD90F853
:100830001061012E12D1402D28BF40252A46D0F844
:10084000081100F02DFDD4F808312B44C4F808310C
:10085000D4F80C315D1BC4F80C51E6E7002070BDE4
:1008600030B590F8105191B004464DB10022694660
:100870008DF8002000F014FD2046FFF7B5FF24E0BE
:10088000694600F0A4FDD4F80C31984202461ED807
:10089000D4F808111D1A0144C4F80811C4F80C5109
:1008A00085B994F812313BB123682046D3F89C30C7
:1008B0006946984784F81251002120460A4600F004
:1008C000EFFC02E0204600F0E5FC012000E02846B5
:1008D00011B030BD10B50446FFF7C2FF20B9204665
:1008E000BDE8104000F0E0BC10BD10B50446FFF7B5
:1008F0007BFF20B92046BDE8104000F0D5BC10BDFC
:1009000010B5044690F8001100F0A2FCB4F80031D4
:100910000BB9022300E0032384F81431012010BD39
:1009200090F8001138B5044680F8151131B900F07F
:100930008EFC032384F8143101250BE00368D3F8FF
:10094000A0309847054628B1204600F07FFC0423DC
:1009500084F81431284638BD90F81431042B01BFB7
:10096000B0F81831A0F8023100F58D73C0F80831E5
:1009700001BF0123C0F80C3180F81031184618BFB0
:10098000002070470368B0F80211D3F8A43090F843
:10099000002110B50446984740B1B4F80231A4F8DC
:1009A0001831B4F8003184F81A31012010BD08B5AF
:1009B00090F81431042B02D0B0F8023193B990F8BA
:1009C000FE30022B0ED1B0F800315BB9B0F8023125
:1009D000C3F3C01103F00F0301EB430100F01EFD50
:1009E000012008BD002008BD08B590F81431042B83
:1009F00002D0B0F8023193B990F8FE30022B0ED13C
:100A0000B0F800315BB9B0F80231C3F3C01103F0A4
:100A10000F0301EB430100F00EFD012008BD002093
:100A200008BD000090F81431042B10B5044602D024
:100A3000B0F80231F3B994F8FE30012B05D002D39F
:100A4000022B05D016E0012200E000220F4B0DE042
:100A5000B4F80231C3F3C01103F00F0301EB4301FB
:100A6000204600F0F5FC094B10B101221A8003E08A
:100A7000188001E0002010BD044BC4F808310120AB
:100A8000022384F81001C4F80C3110BD1C8CFF1F28
:100A900090F8FD3033BB90F8FF300B2B22D8DFE805
:100AA00003F00608210A210C0E21101B1D1FFFF761
:100AB000B9BFFFF799BFFFF77ABFFFF721BFFFF775
:100AC000C9BD00F21513C0F808310123C0F80C317C
:100AD00080F8103118467047FFF722BFFFF73CBF80
:100AE000FFF750BF0020704710B590B0044669462C
:100AF00000F064FC2046694604F1FC02FFF757FE53
:100B00000023C4F8083184F81031C4F80C3184F89B
:100B1000113184F8123123682046D3F89830984771
:100B200018B1B4F804313BB91FE02046FFF7B0FF1D
:100B30000028F6D100202EE094F8FC20012A94F839
:100B4000102108D1012AF5D1D4F80C219A4215D9E7
:100B5000C4F80C3112E0002AECD1D4F80C219A42EE
:100B6000E8D1204600F096FB14E0D4F80C110029DF
:100B7000E0D120460A4600F093FB0BE0D4F80C21AC
:100B8000934204D9930604BF012384F8113120460F
:100B9000FFF72AFE012010B010BD10B50446FFF784
:100BA000A3FF20B92046BDE8104000F07DBB10BD7A
:100BB00038B50D46044600F027FB1DB194F81431FA
:100BC000042BFBD138BDFC307047002300F04ABB3A
:100BD000F8B504461D460F46164600F095FA094B37
:100BE0002360012384F81431002384F81531A4F81C
:100BF000F470A4F8F660A4F8F85084F81631204692
:100C0000F8BD00BF30BD000008B500F057FB431E23
:100C10005842584108BD70B5049EB34204460D4683
:100C200012D890F81461042E0ED100F0DAFB0128DE
:100C30000AD12046294600F0DFFB012806D194F8AE
:100C40001431042B02D1F4E7002070BDB0FA80F01B
:100C5000400970BDF8B51F4690F81431042B0446C6
:100C60000D4616460CD12046294632463B4600F03A
:100C70002FFB012806D194F81431042B02D1F2E79E
:100C80000020F8BDB0FA80F04009F8BD03681B6988
:100C9000184703689B69184703689B6A18474FF019
:100CA000FF3070471120704770477047704770479A
:100CB000002380F81B317047004870477182FF1F86
:100CC000004870479282FF1F004870472682FF1F2E
:100CD00010B50446FFF777FF4378012B1AD1C2788D
:100CE000212A07D0222A0BD0202A13D10722026101
:100CF00083750DE007220261074AC260037507E0B1
:100D0000828812F0010214BF84F81B3184F81B2181
:100D1000184610BD002010BD8B82FF1F072A73B537
:100D200006460C46154625D1FFF74DFF4378012BAB
:100D300020D1C378202B1DD10F4821462A4604F02C
:100D400029FBB8B121462A460B4804F055FB23780D
:100D50006178E5783068A27903EB0121A37801EB93
:100D60000341637924790094D0F8CC4001EB05610C
:100D70003046A04702B070BD8B82FF1F012938B5F5
:100D800005460C4614D103214022FFF71EFF2846DA
:100D900005214022FFF719FF284604214022FFF7D2
:100DA00014FF284604214022FFF72EFF204638BDBD
:100DB000002038BD38B50C4C2368DB07054611D43C
:100DC000204602F079FD68B1084BB5F8F4201A729C
:100DD000120A5A72B5F8F6209A722046120ADA728E
:100DE00002F084FD014838BD248CFF1F7982FF1F6B
:100DF00010B50446FFF7ECFE054B236000232046A8
:100E000084F81B319DF80810FFF7D2FE204610BD74
:100E100008BE000013B513460C464022009205217F
:100E20002246FFF7F8FE02B010BD73B50E4640240F
:100E300013460094042132460546FFF70BFF38B1F4
:100E400028460421224602B0BDE87040FFF7DCBE10
:100E500002B070BD30B5D0F8CC410D4611461A46EF
:100E6000039B24B12846A446BDE83040604730BD0E
:100E70000346B3F84611B3F8442189B292B29142C5
:100E8000F7D0B3F84611B3F8442189B292B2914237
:100E900016D0B3F8462192B2511C89B21A44A3F875
:100EA000461192F84801B3F84621812192B292FB93
:100EB000F1F101EBC111521A92B2A3F84621704729
:100EC00000207047A0F58E70FFF7D2BF07B590F8ED
:100ED0001B21019102F0FF032AB101A90122FFF7B2
:100EE00099FF012000E0184603B05DF804FBA0F56F
:100EF0008E70FFF7EBBFF0B593B001AD0026294629
:100F00006A4604460096FFF790FF009831468142FA
:100F100039D0B4F84421B4F846E16E5C92B20132A3
:100F2000812792FBF7F303EBC3131FFA8EFED21A4D
:100F3000724510D1B4F8463101339BB2A4F8463162
:100F4000B4F846319BB293FBF7F202EBC2129B1A44
:100F50009BB2A4F84631B4F844319BB25A1C92B209
:100F60002344A4F8442183F84861B4F84431812231
:100F70009BB293FBF2F202EBC2129B1A9BB2A4F853
:100F800044310131C3E7D4F840311BB11B6804F58B
:100F90009A709847012013B0F0BD00000E4B10B5B9
:100FA0000446036003F1E80203F5A273C0F82031A0
:100FB000D4F84031C0F81C2100F59A700BB19B6841
:100FC000984704F58E7003F0F3F9044B2360204634
:100FD00000F018F9204610BDE0BE000030BD000052
:100FE000A0F58E70FFF7DABFA0F59070FFF7D6BFBF
:100FF00010B50446FFF7D2FF204602F09FFC2046C2
:1010000010BDA0F58E70F3E7A0F59070F0E7704783
:10101000704770477047704770470000F0B582F026
:101020000202451010F0010EC2F340024FEA8503A0
:101030001D4E1E4C16D09D1C56F8257003F180469F
:1010400006F5E426033396F8C01004EBC50541F01D
:10105000040104EBC3040A4300236F6086F8C02038
:10106000636017E003F1804707F5E42756F823C0D3
:1010700097F8C06046F00806324387F8C0208822FF
:1010800004F83320013304EB451504F833E069809C
:10109000C5F804C0064901220B6802FA00F00343B8
:1010A0000B601046F0BD00BF848EFF1F008EFF1F37
:1010B000A882FF1F4310F0B59B00104C023304EBD5
:1010C000C3056A800E4D55F823600025954203D074
:1010D0004F5D77550135F9E70A4A116821FA00F5A5
:1010E000ED074CBF8825C82504F83350012303FAC7
:1010F00000F0414011601846F0BD00BF008EFF1F98
:10110000848EFF1FA882FF1F38B5354B036004464D
:1011100034484FF40075C0F88850BFF34F8FBFF3C9
:101120006F8F2022E260242262612822E2612C2259
:1011300062623022E2621C23342263606263012314
:101140003822A3602361A3612362A3622363A363A4
:10115000E263236441F20402234B995821F4803165
:101160009950995841F4A021995041F234015A58AC
:1011700042F480225A501D4B1D4A1C601D4B9B6837
:10118000C3F864211C4A1D4B8560C2F3072183F814
:101190009C10C2F30741120E83F8B01083F8B420FC
:1011A000FF2283F8802093F88420154D42F00F022F
:1011B00083F8842093F8002102F03F0283F8002195
:1011C00093F80C2142F0400283F80C21402004F0F7
:1011D00087F8A860402004F083F82860204638BDD6
:1011E00038C0000000E100E000700440288CFF1FC0
:1011F000B116000000ED00E0008EFF1F0020074048
:10120000848EFF1F7047000038B50E4B93F8942072
:1012100042F0010283F8942093F8082142F0100272
:1012200083F808210424A31F012B94BF40F2FF3050
:10123000402004F055F8044D45F824000134102CEA
:10124000F1D138BD00200740848EFF1F70477047E2
:10125000024B01221A70024B19707047C88EFF1F93
:10126000808EFF1F0729084603D811461A46FFF74C
:10127000D5BE002070470000044A136823F0010324
:101280001360034B88221A70704700BFA882FF1FAB
:10129000008EFF1F014B40225A807047008EFF1FB7
:1012A0000120FFF707BF0000034A92F8C03043F067
:1012B000020382F8C030704700200740034B490802
:1012C00003EB411101204A80704700BF008EFF1FD1
:1012D00007292DE9F04160D811F0010E5DD1324DA2
:1012E000481005EB401400F1300C67882F4C14F8BF
:1012F0002C408600E4B248B114F001040FD02C4811
:1013000004680C41E0074BD5704609E015F836003B
:10131000C0F38300A0F10D046042604100E020466C
:10132000244C54F826E00024BC4205D21EF804C028
:1013300002F804C00134F7E71F4C15F83680D4F8E2
:1013400000C02CFA01FE8EEA981E1EF0010F0AD191
:1013500020B1927912B92CF0010203E001228A40F7
:1013600082EA0C02226022681048CA40D2074CBFB1
:10137000C822882205F8362090F8942002F0DF0277
:1013800080F894200A481F60026801238B4022EAFB
:10139000030303600020BDE8F0810220BDE8F08176
:1013A0000120BDE8F08100BF008EFF1F0020074034
:1013B000C48EFF1F848EFF1FA882FF1F07B50A4639
:1013C00001AB0021FFF784FF03B05DF804FB07B514
:1013D0000A4601AB0021FFF77BFF019803B05DF8DF
:1013E00004FB0729084605D8C10703D511461A464C
:1013F000FFF760BE02207047074B1A680A4112F0DF
:10140000010F4FF001001FBF1A68884022EA000058
:10141000186018BF00207047C48EFF1F490889005C
:1014200001F1804101F5E42191F8C03043F002035D
:1014300081F8C03070474908890001F1804101F509
:10144000E42191F8C03003F0FD0381F8C03070470B
:1014500049083031024B13F82100C0F340007047B7
:10146000002007402DE9F14F8A4B93F88050EDB2F0
:1014700015F0010F04461A462DD0002303F1300168
:1014800001330026102B834D02F82160F6D132463D
:1014900030464021FFF7C2FD324640210120FFF7D0
:1014A000BDFD7D4B4FF055321A6095F8943043F0F6
:1014B000020385F89430FF2385F8803085F8883062
:1014C00085F88C3085F8986023681B68204601B049
:1014D000BDE8F04F1847AA0644BF202283F88020B9
:1014E0006F070ED56B4A042382F8803092F8A03043
:1014F00092F8A410026843EA0121C1F30A0193693A
:1015000098472E0610D5634B93F8C020900742BF32
:1015100093F8C02002F0FD0283F8C02093F88020E9
:1015200042F0800283F88020290740F19A80594ACE
:101530005A4F92F8906092F8903092F89080360965
:10154000C3F3C003C8F3800843EA460ACEB908EBE8
:10155000430217F83220C2F383020D2A11D14E4AFA
:10156000136823F0020313603B7E03F07F033B7696
:101570003B7C03F07F033B74236820465B689847FD
:101580006BE003EB460308EB430817F83890C9F308
:101590008309B9F1010F27D126B9236820469B683A
:1015A000984721E03E4B3F481A6809FA0AF949EA90
:1015B00002021A6004EBCA029B4652F8081C52F859
:1015C0000C3C11F0010F18BF026800684FEA61017E
:1015D00008441CBF5258D358984728B1DBF8003054
:1015E00023EA0903CBF8003017F83830C3F383033C
:1015F000092B32D186B923682046DB6898472A4AEE
:101600001378012B29D1294B22491B7803F07F0342
:1016100081F89830167020E0214901230A6804EB14
:10162000CA0403FA0AF747EA020354F8082C0B60CD
:101630000E461C4954F80C3C12F0010F18BF086804
:101640004FEA62021CBF8058C3580868104498478C
:1016500018B1326822EA070333600E4B082283F880
:101660008020EA0641BF0B4A92F8803043F0100315
:1016700082F88030AB0741BF064BFF2283F88820F9
:1016800093F8802044BF42F0020283F8802001B02A
:10169000BDE8F08F00200740A882FF1F008EFF1FCB
:1016A000C48EFF1F288CFF1FC88EFF1F808EFF1F58
:1016B000014B1868FFF7D6BE288CFF1F0368184738
:1016C00008B10B680360704770470000036801337E
:1016D00010B5044604D1064806492C2202F0CAFD82
:1016E00063691A6863681A4214BF0120002010BDA4
:1016F000D8C00000F0C0000038B5036801330446CC
:101700000D4604D105480649232202F0B3FD636863
:101710000DB1E26800E02269136038BDD8C0000056
:10172000F0C0000008B50748FFF7D0FFB0FA80F11D
:1017300004484909FFF7E0FF4FF47A7000F045F9DB
:10174000F1E700BFE48EFF1FC36810B504460BB17C
:101750009B689847204610BD1FB50021102268469F
:1017600003F048FF0E4B00930E480F4B039369465E
:1017700000F060F96846FFF7E7FF0C490C4802F0FB
:1017800029FE0C48FFF7A2FFB0FA80F10948490989
:10179000FFF7B2FF4FF4FA7000F017F9EDE700BF62
:1017A00025170000CC90FF1FCCC0000035C1000001
:1017B0001890FF1FCC8EFF1F73B5324C324E182588
:1017C0002A462046002103F015FF20462F4C42F206
:1017D000140102F01AFC2A462046002103F00AFFF9
:1017E000204642F214012A4C02F00FFC0123009320
:1017F00042F2120220464FF4F851FFF7F9FA04F5CD
:101800008E70002102F0ACFD224B236003F1E80250
:10181000002503F5A273C4F81C2104F59A70002179
:101820001022C4F8203103F0E5FEA4F84451C4F8B6
:10183000CC51A4F846512046174C1849324602F0C4
:101840000BF82046164B40F8043B1022294603F0C3
:10185000D1FE294604F1300000F04BF804F14000BD
:1018600000F022F8204629464FF400622B4600F093
:1018700087F80C492046324602B0BDE8704001F0BE
:10188000EBBF00BFCC8EFF1FC081FF1FE48EFF1F88
:10189000FC8EFF1FE0BE0000CC90FF1F9D0F0000DC
:1018A00030C20000D119000038B500F10805044627
:1018B00000211022284603F09DFE204640F8045FD8
:1018C00000F038FC206010B9024802F0F1FD20461B
:1018D00038BD00BF3DC10000006800F04BBC00688F
:1018E00000F070BC10B50446006800F0D3FC204640
:1018F00010BD70B500F1080504460E4608222846C2
:10190000002103F077FE2046314640F8045F00F0E6
:101910001BFD2060204670BD006800F037BD10B58B
:101920000446006800F046FD204610BD38B5036946
:101930000446051D2BB90C480C494FF4047202F003
:1019400099FC236928461B68984704F140004FF032
:10195000FF31FFF7C1FF0023636104F13000BDE8F0
:101960003840FFF7D9BF00BF62C1000067C1000067
:10197000024B1B6803B11847704700BF2491FF1F3B
:1019800010B500244461B3FA83F4640980F82C4054
:1019900081834262836210BD70B5044600F1400548
:1019A0004FF0FF312846FFF797FF666904F13000DA
:1019B000FFF7B2FF00236361304600F049FC0446A4
:1019C0002846FFF78CFF204670BD00F041BB0000A9
:1019D00010B50D4B03600446FFF7DEFF94F82C3082
:1019E0002BB1A06A08B101F0A5FF0023A36204F1A6
:1019F0004000FFF777FF04F13000FFF790FF201D54
:101A0000FFF7A2FE204610BD30C2000010B504460C
:101A1000FFF7DEFF204601F091FF204610BD38B5EC
:101A2000CB6804460D460BB15B689847EB68E360F2
:101A3000204638BDF8B5044600F140050F4628465B
:101A40004FF0FF31FFF748FF636923B12846FFF7E6
:101A500046FF8020F8BD244BA361A36A83B9606A66
:101A60008008B0F1FE5F94BF80004FF0FF3001F0BE
:101A700055FFA06220B91D481D49562202F0FAFB0D
:101A80000023626AB3EB920F05D2A26A194942F8A9
:101A900023100133F5E7261DBE4207D03046FFF77D
:101AA00053FE1EB130463946FFF7B9FF04F1180066
:101AB000214600F0C9FB606188B994F82C302BB145
:101AC000A06A08B101F036FF0023A3622846FFF7A1
:101AD00006FF04F13000FFF71FFF8120F8BD284604
:101AE000FFF7FDFE0020F8BD2D190000AFC100007A
:101AF00092C10000A52E5AE27047000008B5024BC3
:101B00001B689847FBE700BFAC82FF1F836A9B08F6
:101B100004BF224B1B88F0B5056B08BF9B0805EB83
:101B20008302540748BF043A4FF0807402E9120060
:101B3000A2F14006A2F14404A2F10C074FF0000EFE
:101B400044F804EFBC42F9D1C46942F8204CC27891
:101B5000C662022A416320D0114A2A600F4A1268E5
:101B6000D2001AD5112B18D9A3F110025208511E18
:101B7000304639B14FF0CC3440F8044C013940F8CC
:101B8000084DF6E7D200C2F10802B3181A1F9542B9
:101B90003CBF4FF0CC3243F8042CF0BD3CC20000F7
:101BA000A52E5AE2C36A19627047C36A19625A6263
:101BB0007047000008B50B4800F0BCFA0A4B1860EB
:101BC0000A4800F0B7FA0A4B18600A4800F0B2FA67
:101BD000094B186003F0ECFA00200146BDE808400C
:101BE00001F08EBFC8C20000EC95FF1FDCC20000F0
:101BF0006091FF1F44C200005C91FF1FFFF77EBF92
:101C000010B5044600F0F6F921460246BDE8104042
:101C1000014802F04DBC00BF60C20000FFF7A8BE43
:101C20000449054AC1F1005303F5F843D36011613B
:101C3000704700BF889DFF1FB082FF1F00F016FC99
:101C4000FFF7EEFF0348002100F0FEFA00F058F91C
:101C5000FEE70000B082FF1F024B4FF0FF31186813
:101C600000F088BA6091FF1F014B186800F0AABA13
:101C70006091FF1F80F309887047EFF30980704778
:101C8000684680F3098856480078C00714BF0220D0
:101C9000032080F314887047DFF848C1EFF3058311
:101CA0001B0618BF6047EFF31483DB0708BF6047CC
:101CB00000DF7047DFF830C1EFF305831B0618BF64
:101CC0006047EFF31483DB0708BF604700DF70470E
:101CD000EFF30980816911F8021CC1BB90E80F1075
:101CE00010B5E047BDE81040EFF3098C8CE8070021
:101CF0003E4B93E80600914208BF704741B91EF081
:101D0000100F14D13A49086820F0010008600EE075
:101D10001EF0100F0CBF0120002081F825002CE9D7
:101D2000F00FC1F82CC00CB401F018F90CBC1A600B
:101D3000D2F82CC0BCE8F00F92F8250000280CBFA8
:101D40006FF0020E6FF0120E8CF30988704710B519
:101D5000284A1268914209D8274C54F8214090E84B
:101D60000F10A047EFF3098C8CE80F0010BD10B5E1
:101D700001F080F8BDE810401C4B93E8060091424A
:101D800008BF7047EFF3098C1EF0100F0CBF012045
:101D9000002081F825002CE9F00FC1F82CC00CB40C
:101DA00001F0DCF80CBC1A60D2F82CC0BCE8F00FD3
:101DB00092F8250000280CBF6FF0020E6FF0120E93
:101DC0008CF30988704710B501F0AAF8FFF7D2BF6D
:101DD00010B501F0A3F801F0A3F8FFF7CBBF0000A6
:101DE00048C20000D32A0000ED2A00002C9DFF1FEE
:101DF00034EF00E000000000FCFFFFFF0B4A136817
:101E000030B5002433B19D68A94203D31C46491B59
:101E10001B68F7E70360816013B19D68691A9960D8
:101E20000CB1206030BD106030BD00BFE89CFF1FCA
:101E3000C0B1431C11D00C4B984211D80B4B1B68FE
:101E40004FF47A715A1E01FB0020B0FBF3F34FF6FA
:101E5000FE70834206D898B270474FF6FF70704705
:101E60004FF6FE70704700BF00093D0038C2000009
:101E700038B1830704D10378002B18BF00207047C6
:101E80000020704738B50E4D2878B0B90D4C236846
:101E900093F8241001F0D8F82368DA78FF2A03D1E8
:101EA000DA6A203282F309886168064A09B982E851
:101EB0000A0001F07BFA01232B70002038BD00BF1F
:101EC000E59CFF1F2C9DFF1F014B1878704700BF3A
:101ED000E59CFF1F10B5EFF3108434B9EFF30584D0
:101EE0001CB9EFF31484E40702D4034B187810BD37
:101EF000DFF808C000DF10BDE59CFF1FC91E000011
:101F000010B588B0EFF31083002B32D1EFF30583C7
:101F10007BBBFFF7DFFF28B9184C246814B1646855
:101F200004B1A047EFF3148404F00304022C0CD096
:101F3000032C16D0012C1ED008AC84F30988104C59
:101F40002478E40705D5022404E00D4C2478E40746
:101F50000BD4032484F31488BFF34F8FBFF36F8F28
:101F600003E0074C2478E40705D4DFF818C000DF4D
:101F700002E0822000E0FF2008B010BD1C9DFF1F82
:101F800048C20000851E000038B515460B460246C3
:101F900008B9002038BD00680028FAD09488E11CF8
:101FA00089B20629F5D8D16809B1126900E00A465C
:101FB00024B2043444EA012101F084F80028E8D076
:101FC000094B0A4A013853F82040E36A5A63084B28
:101FD0001B6833B19B6823B1E07829469847E063DA
:101FE00000E0E563204638BD2895FF1F95210000DD
:101FF0001C9DFF1F08B501F01FF818B10138024BF6
:1020000053F8200008BD00BF2895FF1F10B5FFF74B
:102010002FFF044670B1084B1B681BB1DB680BB186
:10202000C06B9847E07801F0A1F8FF280CBF812031
:10203000002010BD802010BD1C9DFF1F08B528B1D9
:10204000FFF7F6FE01F0F8F9402008BD08BD0000DA
:1020500010B5EFF3108434B9EFF305841CB9DFF841
:102060000CC000DF10BD822010BD00003D2000002C
:10207000830704D128B1436901691B6803E0002389
:1020800000E00346194618467047000010B50446A4
:102090000846DFF80CC000DF84E80300204610BDCE
:1020A0007120000010B548B1046824B1237823B929
:1020B000204600F030FD204610BD002010BD70B558
:1020C00010F0030405460E4611D180B10378032BAE
:1020D0000DD10846FFF7ACFE0146284600F0E8FDAA
:1020E000012806D1002E14BFC120812070BD8020A0
:1020F00070BD204670BD820708B50AD148B103788B
:10210000032B06D100F064FDFF280CBF81200020C6
:1021100008BD802008BD10B510F0030407D130B110
:102120000378032B03D100F0FFFC204610BD802074
:1021300010BD000070B50546EFF3108494B9EFF3BD
:1021400005868EB9EFF31484E40706D4074C24788F
:102150001CB9BDE87040FFF7A5BF2846DFF810C0E6
:1021600000DF70BD002070BD204670BDE59CFF1FE4
:10217000A520000010B5EFF3108434B9EFF3058407
:102180001CB9DFF80CC000DF10BD822010BD0000BC
:10219000BF200000084908B508684FF0FF31FFF77D
:1021A000E9FFDFF818C000DF0446FFF737FD2046DF
:1021B000DFF80CC000DFFEE7E09CFF1FF51F00000A
:1021C0000D20000010B5EFF3108434B9EFF305844F
:1021D0001CB9DFF80CC000DF10BD822010BD00006C
:1021E000F72000002DE9F04180460F461646EFF338
:1021F0001084F4B9EFF30583E3B9EFF31483DB073D
:1022000006D40E4B1B781BB9BDE8F041FFF7BCBEEE
:102210000B4D4FF0FF312868FFF7ACFF40463946C1
:102220003246DFF820C000DF04462868FFF7CAFF07
:1022300000E000242046BDE8F08100BFE59CFF1FC0
:10224000E09CFF1F891F00000022FFF7CBBF0000AA
:1022500038B50446EFF31083A3B9EFF305838BB9C8
:102260000A4D4FF0FF312868FFF784FF2046FFF743
:10227000D5FC2046DFF818C000DF04462868FFF7C9
:10228000A1FF00E08224204638BD00BFE09CFF1F74
:102290000D20000010B5EFF3108434B9EFF305847E
:1022A0001CB9DFF80CC000DF10BD822010BD00009B
:1022B0001721000010B568B1046844B1207840B916
:1022C000B1F5803F06DA204689B200F055FD204680
:1022D00010BD002010BD10B510F003040CD158B192
:1022E0000278022A08D142884FF6FF739A4205D03D
:1022F00000F076FD204610BD802010BD812010BD6D
:1023000010B510F0030407D130B10378022B03D1CC
:1023100000F038FD204610BD802010BD10B510F033
:1023200003040CD158B10278022A08D142884FF632
:10233000FF739A4205D000F068FD204610BD802052
:1023400010BD812010BD0000F0B506460D46EFF32C
:1023500010849CB9EFF3058797B9EFF31484E40771
:1023600006D4084C24781CB9BDE8F040FFF7A2BFA2
:1023700030462946DFF810C000DFF0BD0020F0BD78
:102380002046F0BDE59CFF1FB522000030B5044695
:10239000EFF3108515B9EFF3058525B12046BDE8AB
:1023A0003040FFF7BBBFDFF808C000DF30BD0000E2
:1023B000D722000010B5EFF3108434B9EFF3058491
:1023C0001CB9DFF80CC000DF10BD822010BD00007A
:1023D0000123000010B5044660B1016859B140689E
:1023E00060B103784BB90431890089B200F040FA3A
:1023F000606810BD10BD084610BD002010BD000073
:1024000038B5114C23780BB900F056FF0F4B2578E7
:102410001B68FF229A708DB929460D48FFF7DAFF35
:102420000C4B294618602A460B48FFF7ADFD0B4BB5
:1024300018600B48FFF77EFE0A4B186001232370DB
:10244000094B0020187038BDE49CFF1F2C9DFF1F16
:10245000CCC20000E895FF1F4CC20000DC9CFF1FAF
:10246000E0C20000E09CFF1FE59CFF1F10B5EFF3EA
:10247000108474B9EFF305845CB9EFF31484E407B6
:1024800003D4BDE81040FFF7BBBFDFF80CC000DF8E
:1024900010BD822010BD0000012400002DE9F04F86
:1024A0000C4685B08046E8B10378012B1FD1084661
:1024B000FFF7BEFC02A90246404600F0E7F90128FA
:1024C00006D10020002C0246034618BF402003E03E
:1024D0000020024603461020029904460D46164687
:1024E0001F4608E0802405460646074603E000250F
:1024F00080242E462F462046294632463B4605B0CC
:10250000BDE8F08F70B50E461446054660B15AB965
:102510000378012B08D100F00FFA38B12846314674
:1025200000F00EFA204670BD802070BD812070BD85
:10253000114B70B51C681E46E4B1A368013BA36053
:10254000A268BAB90D4B2568186835602146FFF7B7
:10255000D9FF10B10420FFF753FB6379012B04D19D
:102560002046E168FFF74AFC01E0012323710DB129
:102570002C46E5E770BD00BFE89CFF1FE895FF1FF4
:102580007FB50446164601B112B18023236011E0E5
:102590000B78012BF9D1084602A900F0D8F90428DC
:1025A00008BF102301AD14BF0196019395E8070001
:1025B00084E80700204604B070BD000038B504462A
:1025C0001546EFF3108010B9EFF3058020B12046D7
:1025D0002A46FFF7D5FF06E008461146DFF80CC093
:1025E00000DF84E80700204638BD00009D2400007D
:1025F0007FB50A4B03A819684FF0FF32FFF7DEFFE3
:10260000039B102BF5D101A80499FFF73FFD019B17
:10261000002BEED002989847EBE700BFE895FF1F2C
:1026200010B5038B42781943062A04460183438B75
:1026300004D101EA03029A4219D105E0052A16D114
:1026400011EA030213D0428321EA030121832046C9
:1026500000F0D4F80123204663700821628BFFF755
:10266000A4FA21460248BDE8104000F003B810BDAE
:10267000EC9CFF1F30B502788C784368013AD2B2E7
:102680002BB19D78A54202D318465B68F8E7022A71
:102690004B60416003D803B19960886030BD00236E
:1026A0008B6030BD02784368013A59684160022A64
:1026B0004FF0000204D809B188605A609A6000E0C7
:1026C0005A60184670470000034B5A684260002267
:1026D00082605860704700BFEC9CFF1F114BDA68A6
:1026E00010B50AB19A8A0CE000248A1AC460D86036
:1026F00003619A82848210BD002CF5D0A38A1A440B
:1027000023468A42DC68F7D3C460D860C46803619A
:1027100004B12061521A92B28282998A8A1A9A82EC
:1027200010BD00BF049DFF1F38B5194DEB68002B8D
:102730002CD0AB8A013BAB82AA8A002A26D1144B4B
:10274000DC681CB3A3683BB161685960616809B17A
:102750008B6062600023A3600E482146FFF78AFF6A
:10276000A38AAB826378042B01BF0B4B1A68E38A00
:102770009B1808BFA38201236370E368EB6000220B
:1027800013B103491961E2602261D5E738BD00BF8A
:10279000049DFF1FEC9CFF1F749DFF1F836853B9AE
:1027A000084B3BB15A68824202D142685A60704776
:1027B0001346F6E7704742685A60426802B1936078
:1027C000704700BFEC9CFF1F38B58468054624B9EC
:1027D0004378012B0ED1084C03E023780BB9A46891
:1027E000FBE72846FFF7DAFF20462946BDE83840D8
:1027F000FFF740BF38BD00BFEC9CFF1F036910B559
:1028000073B1C268DA60C2683AB1998A848A214495
:10281000998213610023C36000E09A820023036160
:1028200010BD000070B5114BDD78EFF31086EFF3AB
:10283000108272B69A78AA4210D201329A701A782F
:10284000541CAC4208BF00241C7006B962B6AA42F0
:1028500006D203EBC2035860996070BD002EF5D01C
:102860000220BDE87040FFF7CBB900BF6495FF1FA1
:10287000012310390370890800234370837043607B
:10288000038143818381C1817047000070B58589D0
:1028900004461646002D36D043891A1D013350F8E0
:1028A00022200A60C2899BB29A42438104BF00235E
:1028B00043814368EBB14378022B1AD1FFF7F2FE54
:1028C00000210546FFF76EF92389E9691A1D0133D6
:1028D00044F82210E2899BB29A42238108BF002368
:1028E000284608BF2381FFF789FF284600F066FBD2
:1028F0001CE0EFF31080EFF3108372B6013DA58169
:10290000A0B962B670BD9AB142680A4B1AB1196893
:10291000FFF7B0FE05E01B6843605A609860012332
:1029200043703046082100F06DFB01E0002070BDCF
:10293000012070BD2C9DFF1FC2898089101A70472D
:1029400008B5FFF76FFFBDE8084000F081BA838942
:1029500010B5044603B34389043350F823300B60A9
:102960004378022B04D10021FFF75CFF00F070FADE
:10297000EFF31083EFF3108272B6A289013AA281BD
:1029800003B962B66389E28901339BB29A426381DB
:1029900004D10023638101E0184610BD042010BD5E
:1029A000436870B504460E46002B4DD04578022D85
:1029B0001CD0032D0AD0012D63D1FFF773FE04460E
:1029C00010213246FFF7F1F8657037E0084600F055
:1029D00080F80546002854D02046FFF763FE2946BC
:1029E0000446FFF7DFF80123637027E0FFF75AFE84
:1029F00000210546FFF7D6F82389E9691A1D44F836
:102A00002210EFF31082EFF3108172B6A189013129
:102A1000A18102B962B6E28901339BB29A42238155
:102A200004BF00232381012328466B70FFF7E6FED5
:102A300014482946BDE87040FFF71CBE2046FFF74A
:102A4000DDFE10482146F5E78189C089814213D215
:102A500023891A1D44F82260EFF31082EFF31085EA
:102A600072B60131A18102B962B601339BB28342D1
:102A700008BF0023238170BD0320BDE87040FFF72D
:102A8000BFB870BDEC9CFF1F002ABBBF22F0004204
:102A90000732033222F00702A8BF22F0030210B56A
:102AA000B4BF10230C2392B19C188C420FD8014460
:102AB0000344544241600360826021449818884274
:102AC00002D800510346F9E70020186010BD01202C
:102AD00010BDEFF3108372B6026803F001030AB170
:102AE0001168016003B962B610467047814203461F
:102AF0000DD3426891420AD2EFF3108072B61A6881
:102B00000A6010F00100196003D162B6704701201D
:102B10007047002070470323037000234380436005
:102B20008360C36070470000438870B504461BB3E0
:102B30008068036AA34203D1E368036206E0134698
:102B400023B1DA68A242FAD1E268DA6090F8243060
:102B5000026A3AB1516819B189788B4238BF0B4685
:102B6000D268F6E782789A4206D08370164B1B68CB
:102B7000984201D0FFF728FE656885B12046FFF72F
:102B800091FD00210546FFF70DF82846FFF736FEB8
:102B900001236B700D482946FFF76CFDECE70B48ED
:102BA00043686BB1084E9A7831688B789A4207D99E
:102BB000FFF760FD336801225A70284600F0FEF9E5
:102BC0000020207070BD00BF2C9DFF1FEC9CFF1FDC
:102BD0002DE9F84343880546002B61D0324F8168C8
:102BE0003A6891425CD1013B9BB2438013B1002013
:102BF000BDE8F8830B6A834203D1C3680B6206E029
:102C0000134623B1DA68AA42FAD1EA68DA6091F889
:102C100024300C6A3CB162681AB19278934238BF92
:102C20001346E468F6E78B706A68DFF8808042B389
:102C30002846FFF737FD21460646FEF7B3FF30462C
:102C4000FFF7DCFD336AEB604FF001093968D8F813
:102C50000430A5F80290AE608A789B7835629A427B
:102C600001D3304619E04046FFF704FD40463146A7
:102C7000FFF700FD0C4B1B6883F8019086F801906C
:102C80000AE0D8F8042092789A42B0D94046FFF77B
:102C9000F1FC3B6801225A70204600F08FF9A6E74C
:102CA000FF20BDE8F88300BF2C9DFF1FEC9CFF1F99
:102CB000438870B504460E46144D2BB92A688260CD
:102CC000116AC160106203E0826829688A4203D1F8
:102CD00001336380002070BDB6B18B789178994242
:102CE00003D293708068FFF76FFD626822B12046BF
:102CF0002968FFF7BFFC03E02B6863605A609C60A3
:102D00003046092100F07EF9012070BD2C9DFF1F87
:102D1000034B00221A60034A1268DA80704700BF32
:102D2000209DFF1FC4C2000008B5104B10485A6810
:102D3000104B196891421FBF1A60DA8802F1FF3107
:102D400002681CBF52189A809A8803889A420BD155
:102D5000084B064800221A60FFF7A4FCBDE80840B3
:102D600001460248FFF786BC08BD00BFEC9CFF1F70
:102D7000749DFF1F209DFF1F0223037000234360EB
:102D80004180704770B50446656885B12046FFF7FD
:102D900089FC00210546FEF705FF2846FFF72EFDBA
:102DA00001236B700C482946FFF764FCECE70A48E6
:102DB00043686BB1094E9A7831688B789A4207D98B
:102DC000FFF758FC336801225A70284600F0F6F8E5
:102DD0000020207070BD00BFEC9CFF1F2C9DFF1FCA
:102DE000426810B562B1FFF75DFC01210446FEF7B1
:102DF000D9FE2046FFF702FD204600F0DFF802E092
:102E0000428801324280002010BD08B50021FFF742
:102E100009FDBDE8084000F01BB80000426810B58D
:102E20007AB1FFF73FFC0446FFF7E8FC012161702F
:102E30002046FEF7B7FE21460448BDE81040FFF7E4
:102E400019BC42880132428010BD00BFEC9CFF1FBC
:102E5000054B1B7823B9054B4FF080521A60704721
:102E6000034B01221A7070479591FF1F04ED00E09B
:102E70009491FF1F38B51A4B1A4D186801234370FF
:102E8000FFF722FC6C78AA78164B0AB303EBC40355
:102E9000586802781AB91989FFF7C2FB07E0012ABE
:102EA00003D19968FFF77CFD01E0FFF7B7FFEB78EE
:102EB00001349C4208BF0024EFF31083EFF310822B
:102EC00072B6AA78013AAA70002BDCD162B6DAE7B2
:102ED0005C700548FFF7E6FBBDE8384000F054B8E9
:102EE0002C9DFF1F6495FF1FEC9CFF1F084B1A6869
:102EF000084B1A6000225A60072243F8042C064A45
:102F0000136843F07F4313604FF0FF30704700BFFA
:102F1000D4C2000014E000E020ED00E070470000A3
:102F200008B50B4B186801234370FFF7CDFBFFF783
:102F3000FBFE084A136801331360FFF7F5FBFFF748
:102F4000F7FA0548FFF7AEFBBDE8084000F01CB8F3
:102F50002C9DFF1F749DFF1FEC9CFF1F084B1B68DF
:102F6000DA78022A0AD01A6BDB6A9A4203D812680E
:102F7000044B9A4202D00120FEF742BE704700BFC8
:102F80002C9DFF1FA52E5AE2054B5860022343706B
:102F9000044B1B681BB11B690BB1C06B1847704712
:102FA0002C9DFF1F1C9DFF1F08B50348FFF77AFBF0
:102FB000BDE80840FFF7E8BFEC9CFF1F70B5044672
:102FC00018B9BDE87040FFF7EFBF0C4EA27830682B
:102FD00083789A424FF0010508D9FFF775FB3368F3
:102FE0005D702046BDE87040FFF7CEBF657021469A
:102FF0000348BDE87040FFF73DBB00BF2C9DFF1F9D
:10300000EC9CFF1F38B50D46014680B14FF6FF73AB
:103010009842074C02D02068FFF760FB2368054800
:103020005D70FFF73FFBBDE83840FFF7ADBF38BD2F
:103030002C9DFF1FEC9CFF1F024B186800B1C0784D
:10304000704700BF2C9DFF1F10B598B9194B1B6826
:10305000997083F82410184843689B788B4224D9D0
:10306000144C2168FFF706FB236801225A70FFF712
:103070009BFF1AE0114B1B88984218D80138104B5F
:1030800053F820409CB10B4BA1701B6884F82410AE
:103090009C42E0D02046FFF797FB6378012B04D1D8
:1030A0000548FFF7FFFAFFF789FF002010BDFF205A
:1030B00010BD00BF2C9DFF1FEC9CFF1F40C20000F5
:1030C0002895FF1F2DE9F04711F0FF0F0D468146AF
:1030D000224816469A4608BF0135FFF7FAFC044617
:1030E00010B90020BDE8F0871D4B06631B88280A35
:1030F000A06200214E1C9E42F3D81A4F07EB8602B5
:10310000884652F8042C3146002AF3D1EDB201234F
:10311000E670C4F81CA0C4F838A022706370A570D3
:1031200084F824506260A260E26022612262A2827E
:10313000E2822283628384F8252018B90A48FFF7C7
:10314000C8FC206320464946FEF7E0FC204647F8CD
:103150002840FFF733FF3046BDE8F0871099FF1F86
:1031600040C200002895FF1F1893FF1F2DE9F0476C
:103170004B4D18B12B68DB7898423BD12C6800236B
:103180006370FEF77AFDE062FFF7E8FE2B681C6AC9
:10319000FCB16368BBB12046FFF784FA0021064604
:1031A0000127FEF7FFFC3046FFF728FB77703D480C
:1031B0003146FFF75FFAE368326A6780A660E26033
:1031C00034621C46E4E7E2686380A360E36014466F
:1031D000DEE72A683449D3783448013B41F823407C
:1031E000116BFFF783FC296831480C63FFF77EFC05
:1031F0002C604CE02F4B1B8898424BD82A4B00F197
:10320000FF389A4653F82860002E43D03046FFF727
:10321000C5FA3046FFF7F2FA346A14B36368D3B1E3
:103220002046FFF73FFA002107464FF00109FEF75D
:10323000B9FC3846FFF7E2FA87F801901948394699
:10324000FFF718FAE3683A6AA4F80290A760E26010
:103250003C621C46E1E7E2686380A360E3601446D9
:10326000DBE74AF828401148316BFFF73FFC314655
:1032700034630F48FFF73AFC0A48296843689A7894
:103280008B789A4209D901234B70FFF7F3F9FFF7C6
:103290008BFE02E0FF20BDE8F0872046BDE8F08706
:1032A0002C9DFF1FEC9CFF1F2895FF1F1893FF1FED
:1032B0001099FF1F40C2000038B52C4B1A8800231C
:1032C000934205D22A49002041F823000133F7E751
:1032D000284B29481988294C4022FFF7D5FB284B59
:1032E00028481A88284B42F000421968FFF7CCFBA7
:1032F000264B1868264B08221988FFF7C5FBFF23C9
:103300000025E3701F48A562012363702570A57036
:1033100084F824506560A560E56025612562A5827A
:10332000E5822583658384F82550FFF7D2FB194990
:1033300020632046FEF7EAFB174B04221A705D60FB
:10334000164B1A70DD601D619D82154B20461C6076
:1033500002236370FFF718FE124A134B12781D7098
:103360005D70DA70BDE83840FFF7D2BC40C20000A3
:103370002895FF1F42C200001099FF1F349DFF1FB8
:103380003CC200001893FF1FC0C200003891FF1F0D
:10339000BCC20000FD1B0000EC9CFF1F049DFF1F32
:1033A0002C9DFF1FD8C200006495FF1F08B51E4B5F
:1033B0001A6842F47F021A601B681B0203F07F4305
:1033C000DB43B3FA83F3194A19481268DBB2C3F13D
:1033D0000803C2F302229A4228BF531C6FF0807187
:1033E000026801FA03F303F07F4122F07F430B43AD
:1033F0000360FFF77BFD0F4B0028186012DB00F124
:10340000604000F56440FF2202701A6853099B0077
:1034100003F1604303F5614302F01F02012101FA49
:1034200002F21A6008BD00BF20ED00E00CED00E0E4
:103430001CED00E0289DFF1F0321FFF7E3BD000006
:10344000431C10B5044604D115220649064800F075
:1034500011FF2046012100F05BFBC4F3840401202E
:10346000A04010BD74C30000DDC0000038B50546A3
:103470004B1C0C46296013D0240B04F1807404F516
:103480007F54A4010846FFF7DBFF231DEB6004F126
:1034900008032B6104F11003143468606B61AC60A5
:1034A00038BD006800F05EBB38B5036801330446E0
:1034B0000D4604D12F220A490A4800F0DBFE15B15F
:1034C000012D07D038BDA2686168136823EA0103A3
:1034D000136038BDA268616813680B43F8E700BF4A
:1034E00074C30000D8C0000038B503680133044637
:1034F0000D4604D123220549054800F0BBFE636850
:1035000015B1E268136038BD2269FBE7CAC3000049
:10351000D8C0000010B586B000F080FF42F2140160
:10352000684600F072FD042401216846FFF7DCFFC5
:10353000962000F0F6FF00216846FFF7D5FF9620A1
:1035400000F0EFFF013CEFD1042401216846FFF7B2
:10355000CBFF4FF4C87000F0E4FF00216846FFF78E
:10356000C3FF4FF4C87000F0DCFF013CEDD1DAE797
:1035700070B50D46A0B0044600F050FF2B46224621
:103580008021684603F05CFE051E03DC00F072FF3C
:1035900020B070BD0A4B1B6833B94FF4825241F220
:1035A0004401084800F0CEFB064E00241DF804102C
:1035B0003046013400F064FCA542F7D1E6E700BFD5
:1035C000A892FF1F789DFF1F0FB407B504A951F8FB
:1035D000040B0191FFF7CCFF03B05DF804EB04B0DE
:1035E0007047000008B5094B1B686BB941F24401F4
:1035F00007484FF4825200F0A5FB4FF416510448DF
:10360000BDE8084000F0EABA08BD00BFA892FF1F5D
:10361000789DFF1F022810B501DC002010BDC31EDD
:103620000B4A52F82300002142F8231030B901F070
:1036300009F8092303604FF0FF3010BD03685B6990
:103640009847041EE9DA00F0FDFF64420460F2E7E7
:103650009891FF1F0228F8B50D4614460EDC134B57
:103660001B680BB9FFF7BEFF114E2F19BD4210D0DA
:1036700015F8011B304600F003FCF7E703380D4B4B
:1036800053F8200038B900F0DDFF092303604FF044
:10369000FF342046F8BD0368DB689847041EF8DA5B
:1036A00000F0D0FF63420360F3E700BFA892FF1F62
:1036B000789DFF1F9891FF1F022810B50C460BDC68
:1036C000104B1B680BB9FFF78DFF0F4800F0D2FBC2
:1036D00020700124204610BD03380C4B53F8200005
:1036E00030B900F0AFFF092303604FF0FF34F1E77A
:1036F00003689B689847041EECDA00F0A3FF63425E
:103700000360E7E7A892FF1F789DFF1F9891FF1FB6
:10371000022810B516DD03380B4B53F820402CB9A6
:1037200000F090FF09230360204610BD2368204667
:10373000DB699847041EF7DA00F084FF64420460F6
:103740000024F1E70124EFE79891FF1F022810B54C
:1037500006DC00F077FF1D2303604FF0FF3010BD43
:1037600003380A4B53F8200018B900F06BFF092307
:10377000F2E703681B699847041E04DA00F062FF51
:1037800064420460E9E7204610BD00BF9891FF1F26
:10379000022838B50D4604DC4FF400534B6000207E
:1037A00038BD03380D4B53F8204034B900F04AFFC0
:1037B000092303604FF0FF3038BD23682046DB69E2
:1037C0009847002814BF4FF400534FF400436B6038
:1037D000236820469B6A98472861E0E79891FF1F7D
:1037E00008B5012000F03AF80C4A136810B51844E7
:1037F000EFF30881884205D3094B0C221A604FF081
:10380000FF3010BD07490C6824B1074909682144FD
:103810008842F1D21060184610BD00BFC482FF1F5D
:10382000809DFF1FA092FF1FA492FF1F094C08B5A7
:1038300023680546986801F015F82368D86801F0F8
:1038400011F800F04BFE08B100F04AFE0DB1FFF791
:1038500061FEFEE7F886FF1F0120704708B5FFF7FD
:10386000E5FF01207047002101F0B8BF1FB5042219
:103870000C463A230DEB020101900DF109008DF881
:10388000083001F0B9FD214602A801F03BF90446D9
:1038900038B101980368DB69984710B12046FFF7FB
:1038A000E2FF204604B010BD08B5FEF7D5F908BD0B
:1038B00008B5FEF7D9F908BD10B5037803F0030386
:1038C000012B04460CD02BB140F2E23205490648E8
:1038D00000F0D0FC237843F002032370012010BDD8
:1038E000002010BDB2C40000F2C4000010B503787F
:1038F00003F00303022B044605D040F2EA320549E7
:10390000054800F0B7FC237823F0030343F00103DC
:10391000237010BDB2C4000018C5000010B501F03E
:10392000DFFC044610B9024800F0C2FD204610BD7D
:1039300093C4000008B101F0DBBC7047FFF7FABF89
:10394000034610B553F8042B044602B903602268FD
:103950009A4204D05D220349034800F08BFC2068A2
:1039600010BD00BF37C400007FC4000010B504467E
:103970000948FFF7E5FF0023084A194652F82300DB
:10398000A04208BF42F823100133402BF6D1024871
:10399000FFF7D6FF10BD00BF9892FF1F9891FF1F41
:1039A0002DE9FF4789464049064601F0EDFF0446F0
:1039B00028B9FFF717FE204604B0BDE8F0873B4961
:1039C000304601F0E1FF18B9FFF70CFE0124F2E7E1
:1039D0003749304601F0D8FF18B9FFF703FE02243B
:1039E000E9E73448344DFFF7ABFF0024A84655F80B
:1039F0002470002F40D00134402CF8D100F022FE7A
:103A0000182303602B48FFF79BFF0EE0314602A806
:103A100000F0E6FB02A800F027FC064640B900F0E3
:103A200011FE1323036045F824604FF0FF34C2E712
:103A300002A800F007FC074602A81FB100F00BFC2B
:103A400001902BE000F0F5FB06460028E7D0036864
:103A500002A8D3F808A000F0E1FB29F48033024665
:103A600001A93046D0470646C0B100F0EBFD7642D2
:103A7000066045F82470D8E74FF0FF330D4845F84D
:103A80002430FFF75DFF337801973A2BBED1042233
:103A9000711C02A801F0B0FC029B0193019B48F845
:103AA0002430033487E700BF5FC5000066C500000F
:103AB00057C500009892FF1F9891FF1F70477047ED
:103AC000074B08499A68084810B5043A52F8044F61
:103AD00041F8044F8142F9D1044A9A6010BD00BFF9
:103AE00000ED00E0FC7FFF1FB881FF1F0080FF1F7B
:103AF00008B5FFF7E5FFFFF7E2FFFEF79FF808BD07
:103B000008B5FFF7DBFFBDE80840FDF725BE000064
:103B1000F8B5431C04460D4604D114220E490F4843
:103B200000F0A8FB41F238010D48230B465803F181
:103B300009070122BA4003F580233243493342503A
:103B40001B03C4F3840453F8241021F4E06141EA18
:103B5000052143F82410F8BD6EC50000DDC000004B
:103B60000070044038B5431C04460D4604D12122A0
:103B70000649074800F07EFB04F1804000F59220E2
:103B8000016821F003012943016038BD6EC50000C2
:103B9000DDC000000E490B7813F0C00F15D10D4B9E
:103BA0000D4841F2440200689A58120F02FB0000CF
:103BB0004A7912F0400F41F2040299580CBF21F4E7
:103BC000803141F48031995070470020704700BF28
:103BD0000040064000700440C882FF1F70B50368B3
:103BE000DC78DA7802F0F302DA70194A934206467A
:103BF0000D4604F00C041FD0FFF7CCFF33681E788D
:103C00002A0106F0E006B0FBF2F2C2F304213143D0
:103C10001970D2B259785A709A7A02F0E0029A7208
:103C20009A7A4000B0FBF5F101F01F01114399723F
:103C3000DA781443DC7070BD41F24403054AD05871
:103C4000054BC0F3036001301968B1FBF0F0D5E714
:103C500000C0064000700440C882FF1F2DE9F84FE5
:103C60005E1E012E05468A46904604D981223049BF
:103C7000304800F0FFFAB8F1020F04D982222C4933
:103C80002D4800F0F7FAAAF1080BBBF1010F04D997
:103C900083222749294800F0EDFA2B68DF78DA788B
:103CA000B8F1010F02F0F302DA7007F00C075B467F
:103CB0002FD02BD3B8F1020F2FD0022B33D16B684A
:103CC0009BB31B491E48A82200F0D4FA012100230F
:103CD00044EA490444EA03142A68E4B294706B6825
:103CE0003BB9937A03F0DF039372937A43EA41136B
:103CF0009372137803F0E003137013781E43F6B247
:103D00001670D3781F43D770BDE8F88F0024A14602
:103D1000D3E7AAF107034446F9E7AAF10703002411
:103D20004FF00109C9E70021D2E70121D0E700BF28
:103D3000C2C500001AC600003FC6000089C60000C8
:103D4000AEC60000F8B50F4604464149384616464F
:103D500000F098F93F490546304600F093F90146D6
:103D6000284600F071F9411C054604D127223A4942
:103D70003A4800F07FFA3A4B25609D4253D003F554
:103D800080539D4258D0A3F500539D4208D1FFF7C0
:103D900001FF344941F234028B5843F480638B5065
:103DA0002268D37803F0F303D3702D4B9D424AD0A1
:103DB00003F580539D4248D0A3F500539D4201D1A5
:103DC000002363604FF416512046FFF707FF0022DF
:103DD000012308212046FFF741FF1D49384600F026
:103DE00017F91C49304600F013F97A1C03D003215F
:103DF0003846FFF7B7FE731C03D003213046FFF7A8
:103E0000B1FE2268D37843F00C03D370164B9D4269
:103E10001DD1164B164801221A6021460822BDE822
:103E2000F84001F0E9BAFFF7B5FE0E4941F234025D
:103E30008B5843F40063B2E70A4941F234028B58CD
:103E400043F48053ABE70123BBE70223B9E7F8BD96
:103E50002CC30000E4C20000C2C50000BEC60000C2
:103E600000B006400070044000A00640A892FF1F6A
:103E7000789DFF1F03681A799206FCD5D8797047A0
:103E800003681A791206FCD5C9B2D97170470000CF
:103E9000FEE7FEE7FEE7FEE7FEE7FEE7FEE7FEE7FA
:103EA000FEE7FEE71C4B196810B5002933D101204D
:103EB000186041F23C04194B1A5942F400021A519D
:103EC000174A11604FF0FF31C2F810110521C2F8F6
:103ED000181141F244015B58C3F303631918114BE5
:103EE0001B68B3FBF1F303F5F42303F590730E495C
:103EF000B3FBF1F3013BC2F80031C2F80801C2F88C
:103F000020310A4BC2F828019B68094AC3F85C219A
:103F1000084B80229A6010BDAC92FF1F00700440D5
:103F200000700340C882FF1F40420F0000ED00E018
:103F3000AD40000000E100E008B5054B1B680BB97F
:103F4000FFF7B0FF034BD3F81401C04308BD00BF17
:103F5000AC92FF1F00700340034AD2F8383123F0BF
:103F60000203C2F83831704700700340024B01224F
:103F7000C3F83C21704700BF0070034010B50446F1
:103F8000FFF7DAFF054B0022C3F83821201A072279
:103F9000C3F83001C3F8382110BD00BF00700340E2
:103FA000024B8022C3F80821704700BF00E100E007
:103FB00038B50368013304460D4604D12322054970
:103FC000054800F057F9636815B1E268136038BD21
:103FD0002269FBE7CAC30000D8C0000070B50E46D6
:103FE00004461546FFF742FA01360DD02946204611
:103FF000FFF7DEFF20460121FFF756FA2046002199
:10400000BDE87040FFF74DBA70BD0022FFF7E6BF74
:1040100010B5044601300DD110BD9C4209D1204697
:104020008968FFF775FD20460021BDE81040FFF7C5
:1040300099BD0C310B685A1CEFD10248BDE8104005
:1040400000F036BAFFC60000884208B508D0431C0D
:1040500006D0013106D0044800F02AFA4FF0FF31B3
:10406000084608BD0146FBE7CEC600000B685A1C97
:1040700001D118467047834201D1486870470C311E
:10408000F4E70000421C10B5044607D0FFF7EEFF2E
:10409000431C044602D1024800F00AFA204610BD33
:1040A000DFC600000048704710C70000014800F05C
:1040B00063B800BF10C700000368D0B544685B68F0
:1040C000D4E9026798470022B04242EA00023B4628
:1040D00002D2003247F10103C4E90223D0BD2DE929
:1040E000F0410646FFF7E8FF726837685368D2E987
:1040F00002012BB3D3E90023994208BF904203D3B6
:104100007B69BDE8F0411847141A63EB0105002DE7
:1041100008BFB4F1E04F13D2121A84183B6920464D
:1041200041F1000598473046FFF7C6FF7368D3E9B1
:104130000223AB4208BFA24205D333685B69E0E7C4
:104140004FF0E042E9E7BDE8F081036810B50446AE
:104150001B689847636800221A605A60002000219B
:104160000122C3E902011A742046FFF7A5FF204689
:10417000BDE81040FFF7B3BF036870B5DB680446C5
:10418000984763685B68A3B12046FFF795FF6568B1
:104190006E68D5E90201D6E90023994208BF904232
:1041A00007D3F3686B602B68002BEAD0B0689847A0
:1041B000E7E72046BDE87040FFF791BF43681B7CEE
:1041C00010B504460BB9FFF7C0FF2046FFF774FF98
:1041D0006368D3E9020110BD08B5FFF7EFFF08BD22
:1041E00010B50023036043600A782F2A04460DD1DE
:1041F0004A785AB1481C2060194623681A782F2A39
:1042000006D10133236000F0E1F96060204610BD63
:10421000002AF8D0013301312360EEE700687047CF
:10422000406808B520B100F081F9431E584258415A
:1042300008BD10B50446FFF7F3FF10B1606800B188
:10424000043810BD406808B520B100F06FF9B0FA2D
:1042500080F0400908BD10B50446FFF7F3FF10B128
:10426000606800B1043810BD4068003018BF0120FC
:104270007047000070B504460D46164600F0CEF8B3
:1042800033462A4621460348FFF79EF9BDE87040B1
:10429000FFF740B930C7000000207047002070478A
:1042A000036801221B6900211847036800221B696B
:1042B00011461847F8B50368DB6C0E4604468F18A4
:1042C00098473546BD4207D0236815F8011B5B6C43
:1042D000204698470130F5D1236820461B6D98474A
:1042E000A81BF8BDF8B50368DB6C0E4604468F18B2
:1042F00098473546BD4208D0236820469B6C9847B6
:10430000431C02D005F8010BF4E7236820461B6D1F
:104310009847A81BF8BD00207047704700207047E1
:104320000020704710B5054B03604C33044640F83D
:10433000043F00F01BF9204610BD00BF6CC7000011
:10434000A0F10400EEE700BF10B50446FFF7EAFF56
:104350002046FFF7F3FA204610BDA0F10400F3E772
:104360000F4B10B50022044640F8043B00F0E0F883
:104370000C4B23605C336360002363610A49204671
:1043800000F05DF9606118B1FFF76DFA204610BDCD
:1043900000F058F90168054800F08AF8F6E700BF18
:1043A000E0C80000ECC70000C0C70000C3C70000A1
:1043B00010B5074B03F10802643304460260436002
:1043C000406900F087F92046FFF7ACFF204610BD9A
:1043D000E4C700000EB477B5036807AD044655F88E
:1043E000046BDB6C98476069019500F03BFA019A19
:1043F0006069314602F0A2FE236805461B6D204627
:104400009847284603B0BDE8704003B07047EFF30B
:104410001080C04300F001007047000038B5FFF77E
:10442000F6FF054672B60E4C236823B980F00103EF
:104430000C4ADBB213702368013304D143220A49CA
:104440000A48FFF717FF23682BB125B14722064919
:104450000748FFF70FFF23680133236038BD00BF13
:10446000CC92FF1FC892FF1F50C800008EC80000EA
:10447000B4C8000010B50A4C236883B1FFF7C7FF2A
:1044800020B1582207490848FFF7F4FE2368013B92
:10449000236023681BB9054B1B7803B962B610BDB6
:1044A000CC92FF1F50C80000B4C80000C892FF1F84
:1044B0000FB413B5084B1A784AB9012405A904981A
:1044C0001C700191FFF754F82046FFF7C7F902B0BE
:1044D000BDE8104004B07047D092FF1F00F00CB848
:1044E00030B585B06D46182420462946ABBE04463B
:1044F000204605B030BD0000014B1868704700BF72
:10450000CC82FF1F70B50446FFF7CCFD0646FFF7CF
:1045100063FE05463046FFF75FFE401BA042F9D31D
:1045200070BD4FF47A735843FFF7ECBF007B7047C0
:1045300038B504460A4B0360002343600D46A16072
:1045400002730848FFF7FCF945B1074B1A6862602F
:104550001C600448FFF7F4F9204638BD6560F8E7B1
:10456000D0C80000D892FF1FD492FF1F10B50F4B88
:10457000036004460E48FFF7E3F9A3682BB10D4A28
:1045800013689C420CD1636813600948FFF7D8F99F
:10459000237B13B9201FFFF7E9F9204610BD13460E
:1045A0005A689442FBD162685A60EEE7D0C80000B6
:1045B000D892FF1FD492FF1F10B50446FFF7D6FF15
:1045C0002046FFF7BBF9204610BD000070B5064637
:1045D0000C480D46FFF7B4F90B4B1C685CB1A068A2
:1045E00070B12A46314601F069FB48B9A06801F074
:1045F00037FB854204D10348FFF7A2F9204670BD7E
:104600006468EBE7D892FF1FD492FF1F036870B570
:104610001B690122002104469847051E0DDB236813
:1046200002221B6900212046984723680646294636
:104630001B690022204698473546284670BDFFF783
:1046400015B90000014B1868704700BFF886FF1FBE
:1046500000293DD070B505460C4608B1836B7BB38D
:10466000B4F90C300BB9002070BD2846214600F08B
:1046700039F8E36A064633B12846E16998470028CD
:10468000B8BF4FF0FF36A3891B061CD4216B41B184
:1046900004F14003994202D0284606F045FD00236C
:1046A0002363616C21B1284606F03EFD002363645C
:1046B00000F0CAF90023A38100F0C8F9304670BDAC
:1046C00000F0BCF9CCE72846216906F02DFDDDE7B6
:1046D00000207047024B01461868FFF7B9BF00BFC2
:1046E000F886FF1F8B899AB22DE9F0410D4611071C
:1046F00080463CD46A6843F40063002AAB8165DDE0
:10470000AE6A002E4BD09BB203F48052002192B2CD
:10471000D8F80040C8F80010002A5BD02A6D5F0767
:1047200005D569682B6B521A0BB1EB6BD21A404658
:10473000E9690023B047461C56D0AB892A692A6034
:1047400023F400639BB200226A60DA04AB813BD49D
:10475000296BC8F8004011B305F14003994202D01B
:10476000404606F0E1FC00202863BDE8F0812E6998
:10477000AEB12C682E6091070CBF6B690023A41B9F
:10478000AB600AE0324623466F6AE9694046B847A3
:104790000028A4EB0004064404DD002CF2DC002019
:1047A000BDE8F081AB8943F04003AB814FF0FF30AF
:1047B000BDE8F081AB892A69696023F400639BB28C
:1047C000AB81DB042A60C3D52865C1E7EA6B002A08
:1047D00096DCE4E701234046E969B047431C024602
:1047E00019D0AB89AE6A9AE7D8F800100029E1D059
:1047F0001D2907D0162905D0AB8943F04003AB81B2
:10480000BDE8F081AB892A692A6023F400630022A5
:10481000AB816A609CE7D8F80030002BE1D01D2BFB
:1048200007D0162B05D0AB8943F04003AB81BDE820
:10483000F081C8F80040B2E710B5044682B008B174
:10484000836B53B1B1F90C0008B902B010BD20461A
:1048500002B0BDE81040FFF745BF019100F0EEF84F
:104860000199EFE720B1054B01461868FFF7E4BF57
:10487000034B0449186800F071BC00BFF886FF1FA5
:1048800028C9000039480000014900F067BC00BF9A
:10489000514600002DE9F04F354B4568C3630024B5
:1048A000074600F53B7204230321C0F8E412C0F868
:1048B000E822C0F8E04283B02C606C60AC606C66AB
:1048C000EC812C616C61AC61AB81214605F15C002F
:1048D000082200F08FFEBE68DFF898B0DFF898A0DD
:1048E000DFF89890DFF89880C5F820B001230922FE
:1048F000C5F824A0C5F82890C5F82C80ED612146A4
:10490000F381B28106F15C0034607460B460746657
:1049100034617461B4610822019300F06BFEFD689C
:10492000F66112200222C6F820B0C6F824A0C6F80C
:104930002890C6F82C802146A881EA812C606C6002
:10494000AC606C662C616C61AC6105F15C000822A6
:1049500000F050FE019BED61C5F820B0C5F824A021
:10496000C5F82890C5F82C80BB6303B0BDE8F08F74
:1049700089480000E558000009590000415900002D
:104980006159000070B568234D1E03FB05F50E4606
:1049900005F1740106F0C4FB044640B100210C305F
:1049A000666005F168022160A06000F023FE2046E9
:1049B00070BD00BF204B70B51D68AB6B064613B9C8
:1049C0002846FFF767FF05F538756B68AC68013B53
:1049D00005D521E0013B5A1C04F168041CD0B4F950
:1049E0000C20002AF6D1002501234FF6FF72E28148
:1049F000A38165662560A560656025616561A56127
:104A0000294604F15C00082200F0F4FD256365638B
:104A10006564A564204670BD2B680BB11D46D4E7C4
:104A200030460421FFF7AEFF286008B10546CCE709
:104A30000C23336070BD00BF28C90000836B03B135
:104A40007047FFF727BF00BF704700BF704700BF28
:104A500038B5084B084DED1AAC1018BFED1805D04D
:104A6000013C55F8043D9847002CF9D1BDE8384089
:104A700007F054B9748BFF1F788BFF1FF0B583B01C
:104A80000F46114601AA064603F0AAFC0546E8B106
:104A90003046FFF78FFF0446C0B139463046019AD1
:104AA0004FF4DB7300F0F4FD00281BDB114B124FB9
:104AB0001249134AE362EB05E081A581E4612762B4
:104AC0006162A26205D4204603B0F0BD002003B0AD
:104AD000F0BD304621460022022300F01BF820469C
:104AE00003B0F0BD0025FFF7AFFFA581FFF7AEFFD4
:104AF0002846E9E761590000E5580000095900001F
:104B000041590000024B0A4601461868FFF7B6BF3C
:104B1000F886FF1F00F000B82DE9F04F0C4691B069
:104B200091461E46054610B1836B002B73D0A389B6
:104B300003F48473B3F5847F75D0D4F82880B8F17A
:104B4000000F00F03E81012E4AD0022E08D03EB167
:104B500016232B604FF0FF37384611B0BDE8F08FB9
:104B60004FF0000A23695746002B00F01581A289F7
:104B700040F61A0391B20B4043B949055ED4934BFA
:104B8000984500F0F68042F40062A2812846214652
:104B9000FFF752FE07460028DCD14A463346284636
:104BA000E169C0470130D5D0216B41B104F1400328
:104BB000994202D0284606F0B7FA00232363A3895E
:104BC0002269226023F402630021A381616004F161
:104BD0005C00082200F00EFD384611B0BDE8F08FF1
:104BE00028462146FFF728FEA38903F4805292B29B
:104BF000002A00F0B480276D5E075CD4180740F1EE
:104C0000AC80226823690AB1D21A1744B9444FF024
:104C1000010A0026A8E7FFF711FFA38903F48473B4
:104C2000B3F5847F89D128462146FFF705FE84E746
:104C3000A3894FF480621343A381E264002E43D121
:104C4000CB46BAF1000F4ED1A389DA0440F1A98016
:104C5000206D6368216BC71A002900F0AB80E26BFE
:104C6000BF1A1F442069A36B1B1AFF1A1344BB45CC
:104C70003FDBFA1893453CD2C7EB0B073844DB1BEC
:104C800084E8090041B104F14003994202D028466A
:104C900006F04AFA00232363A38923F02003A381AB
:104CA00004F15C000021082200F0A4FC0027384633
:104CB00011B0BDE8F08F6268236BBF1A002B4CD097
:104CC000E26B2369BF1AA1E72846B4F90E1001AAC6
:104CD00000F07EF800287FF459AF059B09EB030B29
:104CE000BAF1000FB0D0216B6368002962D0E26B8B
:104CF000B7E7E76CE1697F420BEA07073A462846C7
:104D00000023C04701303FF441AF2369216B23608A
:104D10000023636041B104F14003994202D0284668
:104D200006F002FA00232363A389BBEB070B23F0F1
:104D30002003A381B4D02846214600F0C7FC0028F8
:104D40007FF424AF626893453FF620AF2368CBEB36
:104D500002025B4462602360A2E7236956E73346A0
:104D60002846E169C047431C07463FF4F3AEA389D8
:104D700042E7B4F90E100029FFF605AF284601AA54
:104D800000F026F830B9029B03F47043B3F5004FEE
:104D90003FF44EAFA289F6E62846214600F030FAED
:104DA000E5E6012352462846E169C047431C7FF4EB
:104DB00050AFEBE622682069121ABF1A1344002193
:104DC00055E71D232B604FF0FF37C5E64159000022
:104DD00038B5084C00230546084611462360FEF707
:104DE000D7FC431C00D038BD2368002BFBD02B60C0
:104DF00038BD00BF809DFF1F9368002B7AD02DE93E
:104E0000F04FB1F80CE01EF0080F83B00C4681465D
:104E1000164626D00B6923B30EF002081FFA88F05D
:104E2000356870B34FF0000ADFF8E0B2D046D845DD
:104E30004346524628BF5B464846B8F1000F53D060
:104E4000E169676AB847002873DDB3681B1A8244BA
:104E5000C0EB0808B360002BE9D1002003B0BDE827
:104E6000F08F4846214602F063FA002840F0458161
:104E7000B4F80CE035680EF002081FFA88F000283C
:104E8000D0D11EF0010B5DD1D846B8F1000F25D06E
:104E90001EF4007FA7682FD0B845BA46C0F0A9809D
:104EA0001EF4906F40F0B68020685246594600F0DC
:104EB0003DFBA0682268C01B02EB0A03A0602360D0
:104EC0004046B3681B1A8344C0EB0808B360002B4C
:104ED000C3D0B4F80CE0B8F1000FD9D1D5F800B0C8
:104EE000D5F804800835D0E7D5F800A0D5F80480BF
:104EF00008359CE70020704720682369984203D852
:104F00006269904580F0B980474528BF47463A46D8
:104F1000594600F00BFBA3682268DB1B3A44A360F0
:104F20002260002B4AD148462146FFF785FC002825
:104F300044D0A38943F040034FF0FF30A38103B076
:104F4000BDE8F08F8046009083468246BAF1000F9C
:104F50002CD0009B002B50D020682169D4F808E0A9
:104F60006269D045434628BF534688421F4604D94C
:104F70000EEB020C634500F39280934220DB134654
:104F8000676AE16948465A46B847071ED1DDB8EB63
:104F9000070825D0B368DB1BBB44C7EB0A0AB36024
:104FA000002B3FF45AAFBAF1000FD2D10023D5F84D
:104FB00000B0D5F804A000930835C7E7384680E76D
:104FC0001A465946019300F0B1FAA2682168019B84
:104FD000B8EB0708A2EB03020B44A2602360D9D10F
:104FE00048462146FFF728FC0028A2D1CDF80080D2
:104FF000D0E720684746C24657E758460A2152463E
:1050000000F07EF9002873D001300123CBEB0008BB
:105010000093A1E767692169236807EB47075B1ADB
:1050200007EBD777581C7F10404487423A463CBF75
:1050300007463A461EF4806F009346D01146484614
:1050400006F06EF8009B8246002859D01A46216966
:10505000009300F0D1F9A289009B22F4906242F003
:105060008002A2810AEB0300FB1AC4F810A067615A
:105070002060A3604746C24617E76FF000434345F0
:1050800028BF4346676A93FBF2F3484603FB02F3EB
:10509000E1695A46B84700283FF713AF49E762462F
:1050A0005946CDF804C000F041FA2368DDF804C089
:1050B0006344236048462146FFF7BEFBDDF804C089
:1050C00000287FF436AF674661E7484606F02AF8C5
:1050D000009B82460028C5D14846216906F024F885
:1050E000A3890C2223F080039BB2C9F8002021E79A
:1050F00001230AF1010800932EE74FF0FF30ADE6DF
:105100000C23C9F80030A38914E700BF00FCFF7F1F
:105110002DE9F04110F538771BD0884600267D68D0
:10512000BC68013D0FD4A389012B05F1FF3506D9D9
:10513000B4F90E300133204601D0C04706436B1C42
:1051400004F16804EFD13F68002FE8D13046BDE894
:10515000F0813E463046BDE8F08100BF2DE9F843BE
:1051600010F538771FD0884606464FF000097D6855
:10517000BC68013D11D4A389012B05F1FF3508D985
:10518000B4F90E3001332146304602D0C04749EA17
:1051900000096B1C04F16804EDD13F68002FE6D1D3
:1051A0004846BDE8F883B9464846BDE8F88300BFE5
:1051B00070B50F4E0F4D761BB61018BF002405D0EA
:1051C000013455F8043B9847A642F9D10A4E0B4DDD
:1051D000761B06F09DFDB61018BF002406D00134E2
:1051E00055F8043B9847A642F9D170BD70BD00BF89
:1051F0006C8BFF1F6C8BFF1F748BFF1F6C8BFF1F53
:105200008B899AB212F0020F3CD1F0B50C46B1F97D
:105210000E10002991B0054619DB01AAFFF7D8FD51
:10522000002812DB029B03F47043B3F5004FA3F593
:105230000057B7FA87F74FEA57172AD0A38943F4E4
:105240000063A3814FF480660BE0A3899AB212F049
:10525000800F43F40063A3810CBF4FF480664026A7
:1052600000272846314605F05BFFA38940B31A4A60
:10527000EA6343F08003A3812060206166619FB9E7
:1052800011B0F0BD01F1430301220B600B614A61D3
:105290007047124BA26A9A42D0D1A3894FF480661C
:1052A0003343A381E664DCE72846B4F90E1003F02B
:1052B000D1F80028E4D0A38943F00103A381DFE7FC
:1052C0009A05DDD404F1430243F002030121A381D6
:1052D000226022616161D3E78948000041590000E2
:1052E000024B0146186805F01BBF00BFF886FF1F80
:1052F000024B0146186805F017BF00BFF886FF1F74
:10530000830770B4C9B240D0541E002A3FD003783E
:105310008B4218BF431C06D11DE0F4B102788A42CB
:1053200004F1FF3417D013F0030F184603F1010303
:10533000F3D1032C14D884B103788B420BD0051918
:10534000431C02E002788A4205D0AB42184603F1C2
:105350000103F7D1002070BC7047204670BC704735
:1053600041EA0126024646EA064610460432036830
:105370007340A3F1013525EA030313F0803FDAD12E
:10538000043C032C1046F0D8D5E71446D1E710466C
:10539000E1E700BF032A70B426D940EA01039B0766
:1053A00011D004780D78AC4222D10244431C05E0B0
:1053B00013F8014B11F8015FAC4219D19342F7D1B8
:1053C000002070BC70470C4603461E682568AE423C
:1053D0001846214603F1040304F1040404D1043AFD
:1053E000032A18462146F0D8002ADAD11046E8E709
:1053F000601B70BC704700BF844641EA000313F095
:1054000003036DD1403A41D351F8043B40F8043BCB
:1054100051F8043B40F8043B51F8043B40F8043B8E
:1054200051F8043B40F8043B51F8043B40F8043B7E
:1054300051F8043B40F8043B51F8043B40F8043B6E
:1054400051F8043B40F8043B51F8043B40F8043B5E
:1054500051F8043B40F8043B51F8043B40F8043B4E
:1054600051F8043B40F8043B51F8043B40F8043B3E
:1054700051F8043B40F8043B51F8043B40F8043B2E
:1054800051F8043B40F8043B403ABDD2303211D3CE
:1054900051F8043B40F8043B51F8043B40F8043B0E
:1054A00051F8043B40F8043B51F8043B40F8043BFE
:1054B000103AEDD20C3205D351F8043B40F8043BCE
:1054C000043AF9D2043208D0D2071CBF11F8013BCC
:1054D00000F8013B01D30B8803806046704700BF92
:1054E000082A13D38B078DD010F003038AD0C3F1A1
:1054F0000403D21ADB071CBF11F8013B00F8013B83
:1055000080D331F8023B20F8023B7BE7043AD9D341
:10551000013A11F8013B00F8013BF9D20B78037016
:105520004B7843708B788370604670478842F0B543
:105530000DD98B1898420AD28118002A54D09A1A91
:1055400013F8014D01F8014D9342F9D1F0BD0F2A36
:1055500048D940EA01039B0747D100F1100401F14B
:105560001003154653F8106C44F8106C53F80C6C8B
:1055700044F80C6C53F8086C44F8086C103D53F870
:10558000046C44F8046C0F2D03F1100304F11004B3
:10559000E8D8A2F1100323F00F0302F00F0E10332E
:1055A000BEF1030F1944034421D91E1F0D46744652
:1055B000043C55F8047B46F8047F032CF8D8AEF180
:1055C000040424F0030404342344214402F00302BD
:1055D00052B1013B0A4411F8014B03F8014F9142CB
:1055E000F9D1F0BD0346F3E7F0BD0346F1E772469B
:1055F000EEE700BF70B4840746D0541E002A41D0A5
:10560000CDB2034602E0621EE4B3144603F8015B28
:105610009A07F8D1032C2ED9CDB245EA05250F2CD7
:1056200045EA054519D903F110022646103E0F2E12
:1056300042F8105C42F80C5C42F8085C42F8045CEA
:1056400002F11002F2D8A4F1100222F00F0204F0CD
:105650000F041032032C13440DD91E462246043A7F
:10566000032A46F8045BFAD8221F22F00302043210
:10567000134404F003042CB1C9B21C4403F8011B09
:10568000A342FBD170BC704714460346C2E700BF7B
:1056900070B5084C06460025084611461A46256096
:1056A000FEF77EF9431C00D070BD2368002BFBD0B1
:1056B000336070BD809DFF1F838903F00903092BB0
:1056C00001D000207047FFF7CDB800BFF8B50C46F9
:1056D000054610B1836B002B43D0A3899AB297047F
:1056E00007D4626E43F4005322F400526266A38131
:1056F0009AB200219606616030D4500721D5216B03
:1057000061B104F14003994202D0284605F00CFD36
:10571000E36B636000202063002B3ED12369002BE4
:105720004BD0A789BEB2B3071ED12269226028469A
:10573000E169256A6369A8470028606009DD0020E7
:10574000F8BDD1063ED512072AD443F00403A38145
:10575000E4E7A38919D143F02003A3814FF0FF3080
:10576000F8BDFFF76BF9B8E71A4B1B49186801231E
:10577000A38106F00906FFF7CBFC092EA781D4D13F
:1057800028462146FEF7AEFFCFE7002243F0400354
:10579000A38162604FF0FF30F8BDA36B2360F8BDBA
:1057A00028462146FFF748F80028D7D1A389A060F2
:1057B00023F00803A0619BB2C7E728462146FFF704
:1057C0001FFDAEE743F0400309222A604FF0FF308F
:1057D000A381F8BD28C90000B956000000290CBFFC
:1057E000022200224FF4806300F000B82DE9F0415E
:1057F0003A4C26680D46044690461F4616B1B36BD8
:10580000002B3CD0B8F1020F2FD8002F2DDB214602
:105810003046FFF711F8A18900236360A3610B06EE
:1058200027D421F0830189B2B8F1020FA1812AD0D7
:10583000002D36D0B8F1010F11D089B201F0080067
:10584000274BF36380B225602561676178B111F061
:10585000030F18BF0027A7600020BDE8F08141F0CA
:1058600001017B42A181A361E7E74FF0FF30BDE872
:10587000F0812169304605F057FCA189D1E7304617
:10588000FFF7DCF8BEE7002004F1430341F002011A
:1058900000250122A181A560236023616261BDE82A
:1058A000F081002F08BF4FF480673846FFF718FDDE
:1058B000054628B1A18941F0800189B2A181B9E7EB
:1058C0004FF48060FFF70CFD054618B9A1894FF031
:1058D000FF30D9E74FF48067ECE700BFF886FF1F81
:1058E0008948000010B50C46B1F90E1003F0DAF843
:1058F000002803DB236D0344236510BDA38923F433
:105900008053A38110BD00BF2DE9F04116468A895E
:105910001D46D3050C46074606D50022B1F90E10E8
:10592000022302F0B7FDA289B4F90E1022F48052CE
:10593000A281384632462B46BDE8F04101F0E4BC76
:1059400010B50C46B1F90E1002F0A4FDA389421C5B
:105950000EBF23F4805343F480532065A38110BD10
:10596000B1F90E1001F046BD00000000000000007B
:105970000000000000000000000000000000000027
:10598000A2EB0300704700BF02780B78012A28BF02
:105990009A42F5D16DE9044540EA0104CDE9026778
:1059A0006FF0000C4FEA447212B380EA010414F065
:1059B000070F6AD100F0070420F0070004F0030588
:1059C00021F007014FEAC505F0E8042314F0040FA5
:1059D000F1E804670CFA05F462EA040266EA0406D8
:1059E0000AD063EA0403624667EA0407664603E0F6
:1059F000F0E80423F1E8046782FA4CF582EA060431
:105A0000A4FA8CF46CBB83FA4CF583EA0705A5FA7B
:105A10008CF595B950E9022351E9026782FA4CF5F9
:105A200082EA0604A4FA8CF483FA4CF583EA0705AB
:105A3000A5FA8CF52543DBD09CB92DBAB5FA85F4CF
:105A400024F0070427FA04F1DDE9026723FA04F3DE
:105A500003F0FF0001F0FF01FDE80445A0EB0100A9
:105A6000704724BAB4FA84F424F0070426FA04F147
:105A7000DDE9026722FA04F202F0FF0001F0FF0103
:105A8000FDE80445A0EB0100704714F0030F3CD182
:105A900010F0030428D150F8082B51F8083B82FA83
:105AA0004CF582EA0305A5FA8CF55DB950F8042C93
:105AB00051F8043C82FA4CF582EA0305A5FA8CF50C
:105AC000002DE8D02DBAB5FA85F424F0070423FAA6
:105AD00004F122FA04F202F0FF0001F0FF01FDE8F8
:105AE0000445A0EB010070474FEAC40420F0030016
:105AF00050F8082B21F0030151F8083B0CFA04F48C
:105B000062EA040263EA0403C9E710F003041AD04E
:105B1000A1EB040120F00300E40750F8042B06D0A9
:105B20000FD28B785FFAA2F4E41A06D12BB1CB78AE
:105B30005FFAB2F4E41A00D11BB920465DF8104BAD
:105B4000704701F1040150F8042BCC0721F0030148
:105B500051F8043B48D824D222F07F4482FA4CF515
:105B600094EA1325A5FA8CF50AD165B951F8043BDE
:105B700084EA0204B4EB036F0ED150F8042BEBE778
:105B80004FEA132355E035F07F454DD10878FDE805
:105B90000445C0F1000070474FEA126203F0FF03B2
:105BA00047E002EA1C4482FA4CF594EA1345A5FA50
:105BB0008CF50AD165B951F8043B84EA0204B4EBD0
:105BC000034F0CD150F8042BEBE74FEA134330E0BE
:105BD00015EA1C4528D10B884FEA124229E04FEA0A
:105BE000124203EA1C4324E002F0FF0482FA4CF55F
:105BF00094EA1365A5FA8CF50AD165B951F8043B0E
:105C000084EA0204B4EB032F09D150F8042BEBE72C
:105C10004FEA13630DE015F0FF0F05D10B684FEA53
:105C2000122223F07F4304E04FF00000FDE804451A
:105C3000704712BA1BBA82FA4CF482EA0304A4FA3F
:105C40008CF5B5FA85F402FA04F203FA04F34FEA8C
:105C50001260FDE80445A0EB13607047AFF30080CD
